:100000000C942A000C9447000C9447000C94470071
:100010000C9447000C9447000C9447000C94740215
:100020000C9447000C94C0020C9447000C944700B9
:100030000C9447000C9447000C9447000C94470024
:100040000C9447000C9447000C9447000C94470014
:100050000C94470011241FBECFE5D8E0DEBFCDBF12
:1000600011E0A0E6B0E0ECEDFCE002C005900D92DE
:10007000A437B107D9F711E0A4E7B1E001C01D92A0
:10008000AF37B107E1F70E944E010C946C060C9457
:10009000000090E08A3008F491E0892F0895809163
:1000A00075018F5F8093750108950E94640580E05B
:1000B00060E040E650E00E947B0581E060E048E6B9
:1000C00050E00E947B0589E691E00E94A202109216
:1000D0007501FFCF0E94640580E060E045E750E0D5
:1000E0000E947B0589E691E00E94A20210927501B0
:1000F000FFCF0F931F93CF93DF9300E0C8ECD0E0C6
:100100000E943104182F8A3038F48AE20E94DD04FC
:10011000812F0E94D9050F5F88E893E1FE01319796
:10012000F1F70197D9F7053058F306C080E060E099
:100130004EE750E00E947B050E9431048D33B1F7F9
:100140000E94DD0580937E0188EE93E028EC30E08C
:10015000F9013197F1F70197D9F7DF91CF911F910D
:100160000F9108950F931F93CF93DF930E9464051F
:1001700080E060E048E850E00E947B0581E060E0BC
:1001800048E950E00E947B0580E197E228EC30E0EE
:10019000F9013197F1F70197D9F70E94640580E0E2
:1001A00060E048E850E00E947B0581E060E00E944A
:1001B000680500E0C8ECD0E00E943104182F8A30B6
:1001C00038F48AE20E94DD04812F0E94D9050F5F76
:1001D00088E893E1FE013197F1F70197D9F70530EF
:1001E00058F30E94310406C080E060E04EE750E022
:1001F0000E947B050E9431048D33B1F788E893E1BA
:1002000028EC30E0F9013197F1F70197D9F70E9416
:10021000640580E060E049EA50E00E947B0581E0EF
:1002200060E046EB50E00E947B0581E066E00E94C2
:10023000680500E0C8ECD0E00E943104182F8A3035
:1002400038F48AE20E94DD04812F0E94D9050F5FF5
:1002500088E893E1FE013197F1F70197D9F705306E
:1002600058F306C080E060E04EE750E00E947B0556
:100270000E9431048D33B1F70E94DD0580937E0129
:1002800088EE93E028EC30E0F9013197F1F701971F
:10029000D9F7DF91CF911F910F910895EF92FF92BF
:1002A0000F931F93DF93CF9300D000D00F92CDB761
:1002B000DEB78FB780688FBFDE011196EFE6F1E001
:1002C00085E001900D928150E1F7CE0101960E94E8
:1002D000A2058FE490E00E949D020E94860508EC32
:1002E00010E00E94640580E065E04CEB50E00E9465
:1002F0007B0581E062E043EC50E00E947B0588E9E9
:100300009AE3F8013197F1F70197D9F782E00E945B
:10031000D9050E94B20080917E01813F29F10E949F
:10032000640580E060E040ED50E00E947B0581E0E4
:1003300060E040EE50E00E947B0580E197E2F8012A
:100340003197F1F70197D9F70E94640580E060E0EA
:1003500046EE50E00E947B0588E893E1F801319772
:10036000F1F70197D9F7BDCF88ECE82EF12C0E9468
:10037000640580E060E040EF50E00E947B0581E092
:1003800060E04EEF50E00E947B0588EE93E0F701BD
:100390003197F1F70197D9F70E943104082F8B327A
:1003A00011F08D32C9F70E94640510E083E00E94CD
:1003B000D90580E060E048E850E00E947B0581E0DC
:1003C00066E00E9468050E94790080917E01813F6D
:1003D000B1F080E060E04EE051E00E947B0581E0FA
:1003E00060E04EE151E00E947B0588E893E1F7016F
:1003F0003197F1F70197D9F71F5F1330B9F6809164
:100400007E018F3F09F457C00B3231F48BE20E941A
:10041000D9050E945500ABCF0D3209F0A8CF0E943C
:10042000640580E065E04DE251E00E947B0581E0DB
:1004300062E044E351E00E947B0580E197E2F7012E
:100440003197F1F70197D9F710E08DE20E94D905B5
:100450000E94B20080917E01813F49F10E946405B3
:1004600080E060E042E451E00E947B0581E060E0D2
:1004700040EE50E00E947B0580E197E2F701319762
:10048000F1F70197D9F70E946405123031F080E04E
:1004900060E042E551E00E947B0588E893E1F701C6
:1004A0003197F1F70197D9F71F5F133071F68091FB
:1004B0007E018F3F31F480E20E94D9050E946A00DC
:1004C00056CF813F09F053CF0E94640580E060E081
:1004D0004CE551E00E947B0588E893E1F7013197F4
:1004E000F1F70197D9F743CF1F920F920FB60F92F2
:1004F00011242F933F934F935F936F937F938F9329
:100500009F93AF93BF93EF93FF93E0917601F091A8
:100510007701309709F00995FF91EF91BF91AF9165
:100520009F918F917F916F915F914F913F912F910B
:100530000F900FBE0F901F901895909377018093A6
:1005400076010895FC012581822F880F887094819F
:10055000892B8EBD8CE88FBD808191819DBD8CBD26
:10056000222321F489B7846089BF0895243039F4A7
:10057000828193819BBD8ABD89B7806189BF0895BF
:100580001F920F920FB60F9211242F933F934F9308
:100590005F936F937F938F939F93AF93BF93EF93EB
:1005A000FF93E0917601F0917701309709F009957A
:1005B000FF91EF91BF91AF919F918F917F916F913B
:1005C0005F914F913F912F910F900FBE0F901F9011
:1005D00018951DBC1CBC1BBC1ABC1EBC1EBC0895BF
:1005E000683008F070C0843008F06DC0813009F1C7
:1005F000813030F08230B1F1833009F064C04BC0FB
:10060000413059F42AB381E090E002C0880F991F6D
:100610006A95E2F7282B2ABB08952AB381E090E07F
:1006200002C0880F991F6A95E2F7809582238ABBE2
:100630000895413059F427B381E090E002C0880F5B
:10064000991F6A95E2F7282B27BB089527B381E00D
:1006500090E002C0880F991F6A95E2F78095822387
:1006600087BB0895413059F424B381E090E002C083
:10067000880F991F6A95E2F7282B24BB089524B3AD
:1006800081E090E002C0880F991F6A95E2F780959B
:10069000822384BB0895413059F421B381E090E076
:1006A00002C0880F991F6A95E2F7282B21BB089595
:1006B00021B381E090E002C0880F991F6A95E2F7AC
:1006C0008095822381BB0895683008F070C0843023
:1006D00008F06DC0813009F1813030F08230B1F125
:1006E000833009F064C04BC0413059F42BB381E032
:1006F00090E002C0880F991F6A95E2F7282B2BBB68
:1007000008952BB381E090E002C0880F991F6A958D
:10071000E2F7809582238BBB0895413059F428B3CA
:1007200081E090E002C0880F991F6A95E2F7282BBC
:1007300028BB089528B381E090E002C0880F991F7C
:100740006A95E2F78095822388BB0895413059F479
:1007500025B381E090E002C0880F991F6A95E2F707
:10076000282B25BB089525B381E090E002C0880FB7
:10077000991F6A95E2F78095822385BB08954130E1
:1007800059F422B381E090E002C0880F991F6A9566
:10079000E2F7282B22BB089522B381E090E002C04B
:1007A000880F991F6A95E2F78095822382BB08958E
:1007B0006830D0F48430C0F4813049F0813028F0C2
:1007C000823039F0833081F406C089B305C086B326
:1007D00003C083B301C080B390E002C095958795B4
:1007E0006A95E2F78170089580E00895843080F47E
:1007F000813049F0813028F0823039F0833041F483
:1008000006C06ABB089567BB089564BB089561BBC9
:100810000895843080F4813049F0813028F08230AE
:1008200039F0833041F406C06BBB089568BB08956E
:1008300065BB089562BB0895843088F4813049F027
:10084000813028F0823039F0833049F406C089B312
:10085000089586B3089583B3089580B3089580E022
:100860000895EF92FF920F931F93CF93DF9381E050
:1008700064E040E00E94F00281E065E040E00E9418
:10088000F00281E066E040E00E94F00281E067E073
:1008900040E00E94F00283E062E040E00E94F0024B
:1008A00083E063E040E00E94F00283E064E040E027
:1008B0000E94F00283E065E040E00E94F002EE2436
:1008C00000E0C0E1D7E201C0E02E84E0F82EFE0C8B
:1008D00081E06F2D41E00E94F00281E06F2D40E049
:1008E0000E94640310E01E5F83E0612F0E94D80322
:1008F000612F6150882309F04CC0802F880F880F2A
:10090000860F883081F1893080F4843021F1853080
:1009100038F48230D1F08330E0F4813099F517C09B
:100920008630E9F08730E8F418C08C3021F18D3042
:1009300028F48A30E1F08B30E0F417C08F30F9F002
:100940008031F9F08E30F1F418C088E01BC087E0E8
:1009500019C089E017C085E215C084E013C085E0A6
:1009600011C086E00FC08AE20DC081E00BC082E0BA
:1009700009C083E007C08DE205C080E003C08DE3BD
:1009800001C08BE2DF91CF911F910F91FF90EF900B
:100990000895162F643009F0A6CF81E06F2D40E056
:1009A0000E94F002CE010197F1F70E2D0F5F043087
:1009B00008F48ACFEE2400E088CFFF920F931F93B4
:1009C000F82E82E061E041E00E94640300ED17E050
:1009D000C8010197F1F782E060E041E00E94640302
:1009E000C8010197F1F780E06F2D0E940904C8014A
:1009F0000197F1F782E060E040E00E946403C801E3
:100A00000197F1F71F910F91FF9008951F93CF93D6
:100A1000DF93EC0110E003C00E94DD041F5FFE01C4
:100A2000E10FF11D80818823B9F7DF91CF911F91EC
:100A300008950F931F93DF93CF93CDB7DEB76097E1
:100A40000FB6F894DEBF0FBECDBF8E010F5F1F4FF4
:100A5000B8014AE050E00E942706C8010E9406053E
:100A600060960FB6F894DEBF0FBECDBFCF91DF9179
:100A70001F910F910895FF920F931F93F82E82E01C
:100A800061E040E00E94640300ED17E0C8010197B7
:100A9000F1F782E060E041E00E946403C801019741
:100AA000F1F780E06F2D0E940904C8010197F1F76A
:100AB00082E060E040E00E946403C8010197F1F722
:100AC0001F910F91FF90089581E00E943B050895CA
:100AD000813039F0813050F0823029F0833031F4A8
:100AE00004C0605C03C0605F01C0605B862F8068EB
:100AF0000E943B0508950F931F938A010E94680589
:100B0000C8010E9406051F910F91089582E061E0DF
:100B100041E00E94F00282E060E041E00E94F002C9
:100B200080E49CE90197F1F780E06FEF0E94F60303
:100B300088E30E943B058CE00E943B0581E00E9417
:100B40003B050895FC0182E08BB988E18AB99AB12E
:100B50002281822F8470892B8AB94481440F440FEB
:100B6000440F4668838190E08370907034E0880F72
:100B7000991F3A95E1F7482B30E023703070220F2F
:100B8000331F422B40BD2081318140E050E083E0A3
:100B9000220F331F441F551F8A95D1F760E072E181
:100BA0008AE790E00E9405062150304030BD29B907
:100BB00008955D9BFECF8CB908955F9BFECF8CB1ED
:100BC000089520E004C05D9BFECF2F5FECB9FC01CF
:100BD000E20FF11DE081EE23B1F70895DC015F9B88
:100BE000FECF8CB18C9390E008C09F5F5F9BFECFDF
:100BF0008CB1FD01E90FF11D8083FD01E90FF11DAD
:100C00008081833291F710820895A1E21A2EAA1BE7
:100C1000BB1BFD010DC0AA1FBB1FEE1FFF1FA217AC
:100C2000B307E407F50720F0A21BB30BE40BF50BA9
:100C3000661F771F881F991F1A9469F76095709532
:100C4000809590959B01AC01BD01CF010895FB01FA
:100C50009F01E8944230C4F04532B4F44A3029F49C
:100C600097FB1EF4909581959F4F642F77270E94E4
:100C70005806805D8A330CF0895D8193CB01009723
:100C8000A1F716F45DE251931082C9010C94480655
:100C9000DC01FC01672F71917723E1F7329704C0E3
:100CA0007C916D9370836291AE17BF07C8F308956E
:100CB000AA1BBB1B51E107C0AA1FBB1FA617B70782
:100CC00010F0A61BB70B881F991F5A95A9F780959E
:0C0CD0009095BC01CD010895F894FFCF71
:100CDC00446F6F7220697300556E6C6F636B696E35
:100CEC00672E2E2E004552524F5221212100507258
:100CFC0065737320273D2700706C7A20656E7465D0
:100D0C007220706173733A00706173732069732081
:100D1C00352064696769747300706C7A2072652D74
:100D2C00656E74657200706173733A00437265612D
:100D3C007465004E65772050617373776F72640031
:100D4C0050617373776F72647320646F6E277400D5
:100D5C004D617463680054727920616761696E003B
:100D6C002B203A204F70656E20446F6F72002D203F
:100D7C003A204368616E6765207061737300575247
:100D8C004F4E47205041535320202020200020203C
:100D9C00202020202020202020202020006368619B
:100DAC006E676500796F75722070617373776F72FF
:100DBC00640070617373776F72647320646F6E2755
:100DCC00740074727920616761696E00506173738D
:100DDC00206368616E676564000000117A0404800A
:040DEC0025030000DB
:00000001FF
