:100000000C942A000C9447000C9447000C94470071
:100010000C9447000C9447000C9447000C94E5079F
:100020000C9447000C9431080C9447000C94470042
:100030000C9447000C9447000C9447000C94470024
:100040000C9447000C9447000C9447000C94470014
:100050000C94470011241FBECFE5D8E0DEBFCDBF12
:1000600011E0A0E6B0E0ECEAF5E102C005900D92E7
:10007000A437B107D9F711E0A4E7B1E001C01D92A0
:10008000AE37B107E1F70E9419070C94D40A0C941B
:100090000000A0E0B0E0EFE4F0E00C949D0ADC0189
:1000A0002B01FA019C91923008F439C1EB0188814F
:1000B000823008F433C1943069F4843009F02FC1E0
:1000C00011969C9111978981981709F428C1A0E68F
:1000D000B0E025C1843009F421C18230A9F4923006
:1000E00009F01DC19A01AD0188E0EA010990AE0155
:1000F000E90109929E018150C1F7E20189811196BF
:100100009C918923818308C1923009F407C112961A
:100110002D903C901397EB018A819B811496AD90B2
:10012000BD90CD90DC901797EC80FD800E811F81F3
:100130009101281B390BB90137FF04C066277727C7
:10014000621B730B603271050CF061C0121613064E
:100150006CF537014801062E04C096948794779475
:1001600067940A94D2F721E030E040E050E004C008
:10017000220F331F441F551F6A95D2F7215030407C
:10018000404050402E213F2140235123211531056D
:100190004105510521F021E030E040E050E07901D7
:1001A0008A01E628F728082919293CC0232BD1F118
:1001B000260E371E35014601062E04C096948794FC
:1001C000779467940A94D2F721E030E040E050E061
:1001D00004C0220F331F441F551F6A95D2F72150C8
:1001E0003040404050402A213B214C215D212115C7
:1001F00031054105510521F021E030E040E050E0BB
:1002000059016A01A628B728C828D9280BC0821529
:1002100093052CF01C01AA24BB24650103C0EE2425
:10022000FF24870111969C91D20111968C91981709
:1002300009F445C0992339F0A80197012A193B090F
:100240004C095D0906C0A60195012E193F09400B16
:10025000510B57FD08C011823382228224833583DB
:10026000468357831DC081E08183338222828827A1
:100270009927DC01821B930BA40BB50B8483958318
:10028000A683B7830DC0220F331F441F551F24833D
:100290003583468357838281938101979383828339
:1002A0002481358146815781DA01C9010197A1096D
:1002B000B1098F5F9F4FAF4FBF4328F30BC09183AE
:1002C00033822282EA0CFB1C0C1D1D1DE482F58288
:1002D0000683178383E0808324813581468157819B
:1002E00057FF1AC0C901AA2797FDA095BA2F8170A0
:1002F0009070A070B0705695479537952795822BD2
:10030000932BA42BB52B84839583A683B7838281FB
:100310009381019693838283DF0101C0D201CD01D5
:10032000CDB7DEB7E2E10C94B90AA0E2B0E0EBE9A8
:10033000F1E00C94A90A69837A838B839C832D83D3
:100340003E834F835887E9E0EE2EF12CEC0EFD1E24
:10035000CE010196B7010E948A058E010F5E1F4FE4
:10036000CE010596B8010E948A058A8991E0892705
:100370008A8BC701B801AE01475E5F4F0E944900FA
:100380000E94B504A096E6E00C94C50AA0E2B0E095
:10039000ECECF1E00C94A90A69837A838B839C834B
:1003A0002D833E834F835887F9E0EF2EF12CEC0E1E
:1003B000FD1ECE010196B7010E948A058E010F5ED7
:1003C0001F4FCE010596B8010E948A05C701B801EA
:1003D000AE01475E5F4F0E9449000E94B504A0969F
:1003E000E6E00C94C50AA0E2B0E0E9EFF1E00C947D
:1003F0009D0A69837A838B839C832D833E834F83FD
:100400005887CE010196BE01675F7F4F0E948A0523
:10041000CE010596BE016F5E7F4F0E948A059985C9
:10042000923088F089898230C8F0943019F4823093
:1004300051F404C0843029F4923081F480E690E0D5
:10044000C6C0923049F420E09A858A89981321E049
:100450002A87CE010996BBC0823049F420E09A85F4
:100460008A89981321E02A8BCE014196B0C02D8451
:100470003E844F8458886D887E888F88988CEE24BF
:10048000FF248701AA24BB24650140E050E060E01E
:1004900070E0E0E0F0E0C10181709070892BE9F03C
:1004A000E60CF71C081D191D9A01AB012A0D3B1D16
:1004B0004C1D5D1D80E090E0A0E0B0E0E614F70484
:1004C0000805190520F481E090E0A0E0B0E0BA0151
:1004D000A901480F591F6A1F7B1FAA0CBB1CCC1C0B
:1004E000DD1C97FE08C081E090E0A0E0B0E0A82A03
:1004F000B92ACA2ADB2A3196E032F10549F0660CA6
:10050000771C881C991C5694479437942794C3CF22
:10051000FA85EA892B893C898B859C85280F391FB0
:100520002E5F3F4F17C0CA0181709070892B61F018
:1005300016950795F794E79480E090E0A0E0B0E886
:10054000E82AF92A0A2B1B2B76956795579547952C
:100550002F5F3F4F77FDE7CF0CC0440F551F661F3D
:10056000771F17FD4160EE0CFF1C001F111F21506B
:100570003040403090E0590790E0690790E47907F7
:1005800060F32B8F3C8FDB01CA018F779070A070D6
:10059000B07080349105A105B10561F447FD0AC032
:1005A000E114F1040105110529F0405C5F4F6F4F24
:1005B0007F4F40781A8EFE1711F081E08A8F4D8FA1
:1005C0005E8F6F8F78A383E0898FCE0149960E945A
:1005D000B504A096E2E10C94B90AA8E1B0E0E3EF1B
:1005E000F2E00C94A50A69837A838B839C832D8324
:1005F0003E834F835887B9E0EB2EF12CEC0EFD1EA5
:10060000CE010196B7010E948A058E010F5E1F4F31
:10061000CE010596B8010E948A052985223008F48A
:100620007EC03989323010F4B8017CC08A859A893D
:1006300089278A87243011F0223031F4231709F0FA
:100640006EC060E670E06EC0343039F41D861E86E0
:100650001F86188A1C861B8604C0323021F484E071
:100660008987B7015FC02B853C858B899C89281BB6
:10067000390B3C872B87ED84FE840F851889AD8864
:10068000BE88CF88D88CEA14FB040C051D0540F405
:10069000EE0CFF1C001F111F215030403C872B87A0
:1006A00020E030E040E050E080E090E0A0E0B0E406
:1006B00060E070E0EA14FB040C051D0540F0282BF7
:1006C000392B4A2B5B2BEA18FB080C091D09B69540
:1006D000A79597958795EE0CFF1C001F111F6F5F64
:1006E0007F4F6F31710531F7DA01C9018F77907053
:1006F000A070B07080349105A105B10561F427FDAB
:100700000AC0E114F1040105110529F0205C3F4FF6
:100710004F4F5F4F20782D873E874F87588BBE0104
:10072000675F7F4FCB010E94B5046896EAE00C94A6
:10073000C10AACE0B0E0EFE9F3E00C94AD0A6983E4
:100740007A838B839C83CE010196BE016B5F7F4FC2
:100750000E948A058D81823061F1823050F18430AF
:1007600021F48E81882351F12EC02F81388537FDE9
:1007700020C06E812F3131051CF06623F9F023C0B3
:100780008EE190E0821B930B29853A854B855C8531
:1007900004C056954795379527958A95D2F76623D5
:1007A000B1F050954095309521953F4F4F4F5F4F99
:1007B0000EC020E030E040E050E009C02FEF3FEFF6
:1007C0004FEF5FE704C020E030E040E050E8B901BF
:1007D000CA012C96E2E00C94C90AA8E0B0E0E3EF6D
:1007E000F3E00C94A50A7B018C016115710581056C
:1007F000910519F482E0898360C083E089838EE1EA
:10080000C82ED12CDC82CB82ED82FE820F8318872A
:10081000C801B7010E946604FC013197F7FF3BC095
:10082000222733272E1B3F0B57016801022E04C0DD
:10083000D694C794B794A7940A94D2F740E050E0B6
:1008400060E070E081E090E0A0E0B0E004C0880FDC
:10085000991FAA1FBB1F2A95D2F70197A109B109B9
:100860008E219F21A023B1230097A105B10521F07E
:1008700041E050E060E070E04A295B296C297D2965
:100880004D835E836F8378878EE190E08E1B9F0B94
:100890009C838B8312C0309781F00E2E04C0EE0C27
:1008A000FF1C001F111F0A94D2F7ED82FE820F83F6
:1008B0001887CE1ADF0ADC82CB821A82CE0101961B
:1008C0000E94B5042896EAE00C94C10AEF92FF92C8
:1008D0000F931F937B018C0180E0E81680E0F806FF
:1008E00081E0080780E0180788F48FEFE816F1042C
:1008F0000105110531F028F088E090E0A0E0B0E0BB
:1009000017C080E090E0A0E0B0E012C080E0E81600
:1009100080E0F80680E0080781E0180728F088E109
:1009200090E0A0E0B0E004C080E190E0A0E0B0E0A2
:1009300020E230E040E050E0281B390B4A0B5B0B13
:1009400004C016950795F794E7948A95D2F7F701B6
:10095000E859FF4F8081281B310941095109C9011C
:100960001F910F91FF90EF900895DF92EF92FF9209
:100970000F931F93FC01E480F58006811781D180DD
:100980008081823048F480E090E0A0E1B0E0E82A85
:10099000F92A0A2B1B2BA5C0843009F49FC0823092
:1009A00021F4EE24FF24870105C0E114F1040105C0
:1009B000110519F4E0E0F0E096C0628173819FEFC9
:1009C000623879070CF05BC022E83FEF261B370B3B
:1009D0002A3131052CF020E030E040E050E02AC020
:1009E000B801A701022E04C07695679557954795E3
:1009F0000A94D2F781E090E0A0E0B0E004C0880F54
:100A0000991FAA1FBB1F2A95D2F70197A109B10907
:100A10008E219F21A023B1230097A105B10521F0CC
:100A200081E090E0A0E0B0E09A01AB01282B392BE7
:100A30004A2B5B2BDA01C9018F779070A070B070E0
:100A400080349105A105B10539F427FF09C0205C68
:100A50003F4F4F4F5F4F04C0215C3F4F4F4F5F4FA1
:100A6000E0E0F0E02030A0E03A07A0E04A07A0E490
:100A70005A0710F0E1E0F0E079018A0127C0603800
:100A8000710564F5FB01E158FF4FD801C7018F776D
:100A90009070A070B07080349105A105B10539F453
:100AA000E7FE0DC080E490E0A0E0B0E004C08FE37A
:100AB00090E0A0E0B0E0E80EF91E0A1F1B1F17FF30
:100AC00005C016950795F794E794319687E016953B
:100AD0000795F794E7948A95D1F705C0EE24FF2493
:100AE0008701EFEFF0E06E2F679566276795902FEF
:100AF0009F77D794DD24D7948E2F8695492F462B48
:100B0000582F5D29B701CA011F910F91FF90EF90F7
:100B1000DF900895FC01DB01408151812281622F29
:100B20006F7770E0221F2227221F9381892F880F61
:100B3000822B282F30E0991F9927991F11969C939B
:100B4000119721153105A9F541155105610571056B
:100B500011F482E037C082E89FEF13969C938E9346
:100B600012979A01AB0167E0220F331F441F551FF4
:100B70006A95D1F783E08C930DC0220F331F441F79
:100B8000551F12968D919C911397019713969C93E4
:100B90008E931297203080E0380780E0480780E489
:100BA000580758F314962D933D934D935C931797E4
:100BB00008952F3F310579F44115510561057105FF
:100BC00019F484E08C93089564FF03C081E08C9352
:100BD00012C01C9210C02F57304013963C932E9396
:100BE000129783E08C9387E0440F551F661F771F91
:100BF0008A95D1F7706414964D935D936D937C93B1
:100C00001797089582E064E040E00E944B09089540
:100C100082E064E041E00E944B09089582E064E0D4
:100C200041E00E94D70882E064E040E00E944B0966
:100C30000895809174018F5F80937401089588E610
:100C400091E00E941308109274010E94080680919E
:100C500074018C3339F40E940206109274010E94D0
:100C60005A080895FFCF88E691E00E94130881E0BA
:100C700064E60E945C0710927401FFCFCF92DF926E
:100C8000EF92FF920F931F93DF93CF9300D000D08A
:100C900000D0CDB7DEB78E010F5F1F4F98ECC92E85
:100CA000D12C86E0E82EF12CEC0EFD1E0E94530A9A
:100CB000F801808388E893E1F6013197F1F7019715
:100CC000D9F70F5F1F4F0E151F0581F720E030E0A9
:100CD000AE014F5F5F4FFA01E20FF31FD901A95830
:100CE000BE4F90818C91981711F08FEF06C02F5F47
:100CF0003F4F2530310579F781EF0E944F0A269644
:100D00000FB6F894DEBF0FBECDBFCF91DF911F911C
:100D10000F91FF90EF90DF90CF900895CF92DF92E8
:100D2000EF92FF920F931F93DF93CF93CDB7DEB770
:100D30002C970FB6F894DEBF0FBECDBF7E0108948E
:100D4000E11CF11C00E510E048ECC42ED12C0E94FF
:100D5000530A682FF7018083C8010E94A60888E81B
:100D600093E1F6013197F1F70197D9F70894E11C67
:100D7000F11C0F5F1F4F0535110549F737E0E32ED2
:100D8000F12CEC0EFD1E00E510E028ECC22ED12C5B
:100D90000E94530A682FF7018083C8010E94A608A9
:100DA00088E893E1F6013197F1F70197D9F70894B4
:100DB000E11CF11C0F5F1F4F0535110549F720E0BD
:100DC00030E0BE016F5F7F4FAE01495F5F4FFB01B7
:100DD000E20FF31FDA01A20FB31F90818C919817D5
:100DE00011F08FEF15C02F5F3F4F2530310579F798
:100DF0008981809377018A81809378018B818093A8
:100E000079018C8180937A018D8180937B0181EFC0
:100E10000E944F0A2C960FB6F894DEBF0FBECDBFCE
:100E2000CF91DF911F910F91FF90EF90DF90CF90C6
:100E30000895DF93CF93CDB7DEB727970FB6F89419
:100E4000DEBF0FBECDBF8FB780688FBFDE011396A8
:100E5000EEE6F1E085E001900D928150E1F7CE01E0
:100E600003960E94180A81E089838A83CE01019645
:100E70000E94960789E196E00E940E080E940E06E5
:100E80000E9481070E94530A80937D018D3211F0E8
:100E9000823019F40E948E06F5CF833019F40E9437
:100EA0003E06F0CF8B3219F40E943306EBCF80322E
:100EB00049F70E941F06E6CF1F93162F813049F095
:100EC000813018F08230C1F40DC080E060E040E075
:100ED0000CC080E060E040E00E944B0980E061E0EF
:100EE00041E008C080E060E041E00E944B0980E002
:100EF00061E040E00E944B09812F0E94C0071F91D2
:100F0000089580E060E041E00E94D70880E061E061
:100F100041E00E94D70880E060E040E00E944B0979
:100F200080E061E040E00E944B090895FC0181816E
:100F300080B911B8808182B984E086BF089584EABF
:100F400086BF06B607FEFDCF089584E986BF0895E3
:100F500083B984E886BF06B607FEFDCF089584EC0A
:100F600086BF06B607FEFDCF83B1089584E886BF2D
:100F700006B607FEFDCF83B1089581B1887F08953D
:100F800012BE90E0A0E0B0E0BC01CD010E94ED03F4
:100F900020E030E048EC52E40E94ED0220E030E036
:100FA0004FE753E40E94F30120E030E040E05FE3CC
:100FB0000E94C6010E9499036CBF81E063E041E09A
:100FC0000E94D7088AE683BF08951F920F920FB63A
:100FD0000F9211242F933F934F935F936F937F93BF
:100FE0008F939F93AF93BF93EF93FF93E09175011E
:100FF000F0917601309709F00995FF91EF91BF913B
:10100000AF919F918F917F916F915F914F913F91A0
:101010002F910F900FBE0F901F901895909376010F
:10102000809375010895FC012581822F880F8870B7
:101030009481892B8EBD8CE88FBD808191819DBD6F
:101040008CBD222321F489B7846089BF08952430A0
:1010500039F4828193819BBD8ABD89B7806189BF44
:1010600008951F920F920FB60F9211242F933F9362
:101070004F935F936F937F938F939F93AF93BF93A0
:10108000EF93FF93E0917501F0917601309709F0AD
:101090000995FF91EF91BF91AF919F918F917F91B2
:1010A0006F915F914F913F912F910F900FBE0F90D5
:1010B0001F9018951DBC1CBC1BBC1ABC1EBC1EBCC2
:1010C0000895EF92FF921F93CF93DF93EC017B0182
:1010D0000E949F070E94BD07883089F5CE01880FC6
:1010E000892F881F990B9195182F1E70812F806A68
:1010F0000E94A8070E94BD07883109F58C2F0E9425
:10110000A8070E94BD078832D1F40E949F070E9461
:10111000BD078031A1F4812F816A0E94A8070E9437
:10112000BD07803461F40E94B607F70180830E94F6
:10113000BD07883521F40E94A50781E001C080E049
:10114000DF91CF911F91FF90EF9008951F93CF9360
:10115000DF93EC01162F0E949F070E94BD07883085
:1011600009F5CE0180709770880F892F881F990B21
:101170009195806A0E94A8070E94BD07883191F46A
:101180008C2F0E94A8070E94BD07883259F4812F36
:101190000E94A8070E94BD07883221F40E94A5077B
:1011A00081E001C080E0DF91CF911F910895683008
:1011B00008F070C0843008F06DC0813009F18130D2
:1011C00030F08230B1F1833009F064C04BC041305F
:1011D00059F42AB381E090E002C0880F991F6A9504
:1011E000E2F7282B2ABB08952AB381E090E002C0E1
:1011F000880F991F6A95E2F7809582238ABB08952C
:10120000413059F427B381E090E002C0880F991F64
:101210006A95E2F7282B27BB089527B381E090E079
:1012200002C0880F991F6A95E2F78095822387BBD9
:101230000895413059F424B381E090E002C0880F52
:10124000991F6A95E2F7282B24BB089524B381E007
:1012500090E002C0880F991F6A95E2F7809582237B
:1012600084BB0895413059F421B381E090E002C07D
:10127000880F991F6A95E2F7282B21BB089521B3A7
:1012800081E090E002C0880F991F6A95E2F780958F
:10129000822381BB0895683008F070C0843008F064
:1012A0006DC0813009F1813030F08230B1F183308E
:1012B00009F064C04BC0413059F42BB381E090E099
:1012C00002C0880F991F6A95E2F7282B2BBB08955F
:1012D0002BB381E090E002C0880F991F6A95E2F776
:1012E000809582238BBB0895413059F428B381E067
:1012F00090E002C0880F991F6A95E2F7282B28BB5F
:10130000089528B381E090E002C0880F991F6A9584
:10131000E2F78095822388BB0895413059F425B3C4
:1013200081E090E002C0880F991F6A95E2F7282BB0
:1013300025BB089525B381E090E002C0880F991F76
:101340006A95E2F78095822385BB0895413059F470
:1013500022B381E090E002C0880F991F6A95E2F7FE
:10136000282B22BB089522B381E090E002C0880FB1
:10137000991F6A95E2F78095822382BB08956830B1
:10138000D0F48430C0F4813049F0813028F08230CC
:1013900039F0833081F406C089B305C086B303C039
:1013A00083B301C080B390E002C0959587956A959C
:1013B000E2F78170089580E00895843080F48130F0
:1013C00049F0813028F0823039F0833041F406C092
:1013D0006ABB089567BB089564BB089561BB089517
:1013E000843080F4813049F0813028F0823039F047
:1013F000833041F406C06BBB089568BB089565BB9C
:10140000089562BB0895843088F4813049F08130BA
:1014100028F0823039F0833049F406C089B308954A
:1014200086B3089583B3089580B3089580E0089546
:10143000FC0182E08BB988E18AB99AB12281822FBE
:101440008470892B8AB94481440F440F440F466845
:10145000838190E08370907034E0880F991F3A95F3
:10146000E1F7482B30E023703070220F331F422BFE
:1014700040BD2081318140E050E083E0220F331FE6
:10148000441F551F8A95D1F760E072E18AE790E02A
:101490000E947B0A2150304030BD29B908955D9BE0
:1014A000FECF8CB908955F9BFECF8CB1089520E0EC
:1014B00004C05D9BFECF2F5FECB9FC01E20FF11D74
:1014C000E081EE23B1F70895DC015F9BFECF8CB184
:1014D0008C9390E008C09F5F5F9BFECF8CB1FD01B5
:1014E000E90FF11D8083FD01E90FF11D8081833239
:1014F00091F710820895A1E21A2EAA1BBB1BFD01D1
:101500000DC0AA1FBB1FEE1FFF1FA217B307E407E2
:10151000F50720F0A21BB30BE40BF50B661F771F3A
:10152000881F991F1A9469F760957095809590951A
:101530009B01AC01BD01CF0108952F923F924F92C4
:101540005F926F927F928F929F92AF92BF92CF9253
:10155000DF92EF92FF920F931F93CF93DF93CDB75C
:10156000DEB7CA1BDB0B0FB6F894DEBF0FBECDBFD4
:1015700009942A88398848885F846E847D848C84A5
:101580009B84AA84B984C884DF80EE80FD800C81AE
:101590001B81AA81B981CE0FD11D0FB6F894DEBF91
:0C15A0000FBECDBFED010895F894FFCF01
:1015AC00000000000000000000010202030303031E
:1015BC0004040404040404040505050505050505D7
:1015CC0005050505050505050606060606060606B7
:1015DC00060606060606060606060606060606069F
:1015EC000606060606060606070707070707070787
:1015FC00070707070707070707070707070707076F
:10160C00070707070707070707070707070707075E
:10161C00070707070707070707070707070707074E
:10162C000707070707070707080808080808080836
:10163C00080808080808080808080808080808081E
:10164C00080808080808080808080808080808080E
:10165C0008080808080808080808080808080808FE
:10166C0008080808080808080808080808080808EE
:10167C0008080808080808080808080808080808DE
:10168C0008080808080808080808080808080808CE
:10169C0008080808080808080808080808080808BE
:1016AC0008080808080808080000117A04048025B6
:0416BC000300000027
:00000001FF
